:100000000C9446000C9465000C9465000C946500FB
:100010000C9465000C9465000C9465000C946500CC
:100020000C9465000C9465000C9465000C946500BC
:100030000C9465000C9459010C9465000C946500B7
:100040000C9465000C9465000C9465000C9465009C
:100050000C9465000C9465000C9465000C9465008C
:100060000C9465000C9465000C9465000C9465007C
:100070000C9465000C9465000C9465000C9465006C
:100080000C9465000C9465000C94650011241FBE4F
:10009000CFEFD0E4DEBFCDBF11E0A0E0B1E0E4EDF2
:1000A000F8E100E00BBF02C007900D92A234B10747
:1000B000D9F721E0A2E4B1E001C01D92A03CB20753
:1000C000E1F70E94F9080C94680C0C940000CF939F
:1000D000DF9300D01F92CDB7DEB789837B836A831D
:1000E00089818A3031F48A819B81BC018DE00E9434
:1000F000670080EC90E0FC018081882F90E08072A6
:100100009927892BB1F386EC90E02981FC012083AB
:1001100080E090E00F900F900F90DF91CF910895C5
:10012000CF93DF93CDB7DEB72C970FB6F894DEBF31
:100130000FBECDBF6D837E838F83988729873A87D3
:100140004B875C878D819E81AF81B88529853A85F3
:100150004B855C85BC01CD010E94970BDC01CB0176
:1001600089839A83AB83BC8389819A81AB81BC816B
:10017000892B8A2B8B2B29F489859A85AB85BC85A5
:1001800011C089859A85AB85BC858D839E83AF839D
:10019000B88789819A81AB81BC8189879A87AB872F
:1001A000BC87D0CFBC01CD012C960FB6F894DEBF32
:1001B0000FBECDBFDF91CF910895CF93DF9300D0D5
:1001C00000D0CDB7DEB769837A838B839C83898126
:1001D0009A81AB81BC8180930E0190930F01A09313
:1001E0001001B093110180910E0190910F01A09127
:1001F0001001B09111018093430190934401A093A9
:100200004501B093460100000F900F900F900F90A2
:10021000DF91CF910895CF93DF93CDB7DEB781E81B
:1002200090E02BE0FC01208388E890E02DE730E0AF
:10023000FC01318320838FE690E022E0FC012083E3
:1002400084E890E0FC011182108280910E0190916F
:100250000F01A0911001B09111018093430190937F
:100260004401A0934501B09346018FE590E02FE54E
:1002700030E0F90120812068FC0120830000DF913B
:10028000CF910895CF93DF93CDB7DEB781E890E0AB
:10029000FC0110820000DF91CF910895CF93DF938E
:1002A000CDB7DEB781E0809342010000DF91CF91AE
:1002B00008951F920F9200905F000F9211240090FA
:1002C0005B000F922F933F934F935F936F937F93B6
:1002D0008F939F93AF93BF93EF93FF93CF93DF934E
:1002E000CDB7DEB78091430190914401A0914501C3
:1002F000B09146010197A109B10980934301909300
:100300004401A0934501B09346018091430190912F
:100310004401A0914501B0914601892B8A2B8B2B7A
:1003200091F40E944E0180910E0190910F01A091D5
:100330001001B09111018093430190934401A09367
:100340004501B09346010000DF91CF91FF91EF91FD
:10035000BF91AF919F918F917F916F915F914F91DD
:100360003F912F910F9000925B000F9000925F00E1
:100370000F901F901895CF93DF9300D000D000D03E
:10038000CDB7DEB78D836E831A82198227C088E2CB
:1003900090E028E0FC01208388E290E028E230E051
:1003A000F9012081422F2D81222F30E0098002C0E7
:1003B000359527950A94E2F72170242BFC012083C0
:1003C00088E290E028E230E0F90120812260FC011F
:1003D000208389819A8101969A83898389819A8170
:1003E0000897ACF21C821B8227C08BE290E028E0C9
:1003F000FC0120838BE290E02BE230E0F9012081C8
:10040000422F2E81222F30E00B8002C03595279598
:100410000A94E2F72170242BFC0120838BE290E008
:100420002BE230E0F90120812260FC0120838B81E6
:100430009C8101969C838B838B819C810597ACF278
:1004400088E290E028E230E0F90120812460FC019C
:1004500020838BE290E02BE230E0F90120812460E0
:10046000FC01208388E290E0FC0110828BE290E0A6
:10047000FC011082000026960FB6F894DEBF0FBE76
:10048000CDBFDF91CF910895CF93DF93CDB7DEB786
:100490008AE790E02AE730E0F9012081206EFC0134
:1004A00020830000DF91CF910895CF93DF931F92B7
:1004B000CDB7DEB789838CE790E02981283028F01A
:1004C0002CE730E0F901208101C02981FC01208363
:1004D0001092510106C00000809151018F5F8093FE
:1004E0005101809151018F30B0F300000F90DF91E6
:1004F000CF910895CF93DF9300D000D0CDB7DEB772
:100500009C838B8388E790E0FC01808191819A83B2
:1005100089838B819C81892B09F047C01C821B82B7
:1005200089819A81883A910528F089819A818B374F
:10053000934038F082E390E0909348018093470124
:1005400033C089819A818932914028F089819A81CA
:100550008D30934038F084E690E09093480180938A
:10056000470122C089819A818A3A914028F0898185
:100570009A818F39924038F086E990E09093480153
:100580008093470111C089819A818B32924028F073
:1005900089819A818133924058F088EC90E0909361
:1005A00048018093470104C003C01C821B8201C024
:1005B000000000008B819C810F900F900F900F9096
:1005C000DF91CF910895CF93DF9300D000D0CDB7C6
:1005D000DEB79C838B8388E790E0FC01808191816A
:1005E0009A8389838B819C81892B09F03EC01C8270
:1005F0001B822091520130915301809147019091CB
:1006000048012817390750F4809152019091530105
:10061000019690935301809352012AC089819A8157
:100620008B35914070F480911301833EC9F0809125
:100630001301882F90E0880F991F81608093130128
:100640000FC089819A818F3E924050F080911301B2
:10065000883F31F080911301869580688093130163
:10066000109253011092520103C01C821B820000A1
:1006700000008B819C810F900F900F900F90DF9165
:10068000CF910895CF93DF9300D0CDB7DEB79A8393
:10069000898389819A81892BA9F41A8219820E94FF
:1006A000180C26E030E0B9010E94830B80934901C9
:1006B0000E94180C23E030E0B9010E94830B809364
:1006C0004A0103C01A8219820000000089819A81C0
:1006D0000F900F90DF91CF910895CF93DF9300D0CB
:1006E00000D0CDB7DEB78B836C838C81882311F467
:1006F00080E01BC08B8189838C818230A8F01A82B4
:1007000009C099818B81989F802D112489838A81CA
:100710008F5F8A838A81282F30E08C81882F90E038
:100720000197281739076CF389810F900F900F906C
:100730000F90DF91CF910895CF93DF9300D000D039
:10074000CDB7DEB78091150180958983809117011F
:1007500080958B831A8206C08981869589838A81D8
:100760008F5F8A838981882F90E081709927892BF8
:1007700099F38A818F5F682F82E00E946D038C83DA
:100780009B818C81891710F482E007C09B818C814A
:10079000981710F480E001C081E00F900F900F9047
:1007A0000F90DF91CF910895CF93DF9300D000D0C9
:1007B000CDB7DEB79C838B8380E290E0FC01808123
:1007C000809589830E949C038A838B819C810097FA
:1007D00021F0019709F49EC0B3C080914C01882399
:1007E000B9F18981882F90E088709927892B39F495
:1007F0008981882F90E080719927892B31F181E0E0
:1008000090E09C838B838981882F90E08870992762
:10081000892B79F080911501833E09F479C080918C
:100820001501882F90E0880F991F81608093150132
:100830006FC080911501883F09F46AC0809115014D
:10084000869580688093150163C01C821B827BC0E3
:100850001C821B828091540190915501843F9140EC
:1008600050F4809154019091550101969093550157
:100870008093540168C080914901833000F58A81DA
:10088000813009F440C08A81882371F0809115017C
:10089000833EC9F180911501882F90E0880F991F40
:1008A0008160809315012FC080911501883F59F117
:1008B00080911501869580688093150124C08091F0
:1008C0001A01882301F180914A01823071F48091EC
:1008D0001501833EC1F080911501882F90E0880FAB
:1008E000991F8160809315010EC080914A01882371
:1008F00051F080911501883F31F080911501869566
:1009000080688093150110925501109254011BC00C
:10091000000019C08981882F90E088709927892B61
:1009200039F48981882F90E080719927892B29F0EB
:1009300081E090E09C838B8306C01C821B8203C0F5
:100940001C821B82000000008B819C810F900F9005
:100950000F900F90DF91CF910895CF93DF9300D048
:1009600000D000D0CDB7DEB78D836E8388E790E0EE
:10097000FC01808191819C838B838D8189838E8111
:100980008A8306C08A8186958A8389818695898330
:100990008A81882F90E081709927892B99F38B8128
:1009A0009C818B35914040F18B819C818F3E9240A0
:1009B00018F58981843049F410921B0182ED90E092
:1009C000909319018093180100C18981823051F4FC
:1009D00081E080931B018AEF90E09093190180934E
:1009E0001801F3C082E080931B0182ED90E09093A8
:1009F000190180931801E9C08B819C818B3591404E
:100A000008F073C080911B01813021F58981843009
:100A100051F481E080931B0182ED90E090931901E5
:100A200080931801D2C08981823051F482E0809392
:100A30001B0182ED90E09093190180931801C5C0CD
:100A400082E080931B018AEA90E0909319018093E1
:100A50001801BBC080911B01823019F58981843057
:100A600049F410921B0182ED90E09093190180935C
:100A70001801ABC08981823051F482E080931B0160
:100A80008AEF90E090931901809318019EC082E054
:100A900080931B018AEA90E09093190180931801DA
:100AA00094C08981843051F481E080931B0182EDF0
:100AB00090E0909319018093180187C0898182305A
:100AC00051F481E080931B018AEF90E0909319012B
:100AD000809318017AC081E080931B0182ED90E041
:100AE000909319018093180170C080911B0181308F
:100AF00021F58981843051F481E080931B0182EDDE
:100B000090E090931901809318015FC08981823031
:100B100051F481E080931B018AEF90E090931901DA
:100B20008093180152C081E080931B0182ED90E018
:100B3000909319018093180148C080911B01823065
:100B400011F58981843049F410921B018AEA90E002
:100B5000909319018093180138C08981823049F43B
:100B600010921B018AEF90E0909319018093180175
:100B70002CC082E080931B0182ED90E090931901DC
:100B80008093180122C08981843049F410921B019E
:100B90008AEA90E0909319018093180116C0898128
:100BA000823049F410921B0182ED90E0909319017C
:100BB000809318010AC081E080931B0182ED90E0D0
:100BC000909319018093180100C0000026960FB67B
:100BD000F894DEBF0FBECDBFDF91CF910895CF93C4
:100BE000DF9300D000D01F92CDB7DEB79D838C83FA
:100BF00080911301809589838091150180958A8366
:100C00008091170180958B838C819D81892B09F0C0
:100C100007C11D821C82209156013091570180919D
:100C20001801909119012817390750F48091560145
:100C30009091570101969093570180935601F4C00B
:100C400080911601813029F080911601803809F0D9
:100C500045C08BEF8093170181E080931B01809149
:100C600016018130E9F488E08093160110921A0190
:100C700080914B01882309F4D6C080914F018823CD
:100C800031F480914F018F5F80934F01CCC083E09E
:100C900080934F0188E08093500110924B01C3C0B4
:100CA00080E18093160181E080931A0180914B01CD
:100CB000882309F4B8C080914E01882331F48091D3
:100CC0004E018F5F80934E01AEC083E080934E0152
:100CD00082E08093500110924B01A5C080911A01CF
:100CE0008823F1F0809116018230D1F49B818981B3
:100CF00089238823A9F010921A0169818B810E94AF
:100D0000AD04809117018E3F21F482E080931C0195
:100D10002AC0809117018F3E31F510921C0123C02B
:100D200080911A01882301F5809116018034E1F445
:100D30009B818A8189238823B9F081E080931A01FD
:100D40006A818B810E94AD04809117018E3F21F44E
:100D500082E080931C0108C0809117018F3E21F42E
:100D600010921C0101C0000080911A01882331F00B
:100D70008091160186958093160105C08091160119
:100D8000880F8093160180911B018823A9F480911C
:100D900017018F3E49F080911701882F90E0880F4E
:100DA000991F816080931701809117018F3EC1F4D4
:100DB00082E080931B0114C080911B01823081F47A
:100DC000809117018E3F31F08091170186958068E0
:100DD00080931701809117018E3F11F410921B012F
:100DE00080911C018130B9F080911C01882351F061
:100DF00080911701882F90E0880F991F8160809360
:100E0000170106C0809117018695806880931701AD
:100E100081E080931C01109257011092560104C08A
:100E20001D821C8201C0000000008C819D810F90FA
:100E30000F900F900F900F90DF91CF910895CF9367
:100E4000DF9300D01F92CDB7DEB79B838A8380E209
:100E500090E0FC018081809589838A819B81009745
:100E600019F00197D1F031C08981882F90E084700A
:100E70009927892B79F081E090E09B838A83809188
:100E80004B01882319F010924B0123C081E080931D
:100E900058011FC01B821A821CC08981882F90E0D4
:100EA00084709927892B29F081E090E09B838A83C5
:100EB0000FC01B821A8280915801882349F010923A
:100EC000580181E08093590103C01B821A8201C03E
:100ED0000000000080915901882351F181E0809346
:100EE0004B0181E08093120181EF8093130180E830
:100EF0008093140181EF8093150188E0809316019F
:100F00008BEF809317018AEF90E090931901809303
:100F1000180181E080931A0181E080931B0181E038
:100F200080931C0110924E0110924F0110925901B2
:100F30008A819B810F900F900F90DF91CF91089540
:100F4000CF93DF9300D000D01F92CDB7DEB79D8343
:100F50008C8380E290E0FC0180818095898388E722
:100F600090E0FC01808191819B838A8380914B0179
:100F7000882381F48A819B818B35914018F41092EB
:100F80004C0108C08A819B81803F924018F081E02B
:100F900080934C018C819D81009719F00197F1F0AD
:100FA0002CC08981882F90E088709927892B99F02F
:100FB00081E090E09D838C8380914B01882301F533
:100FC00080914C01882319F010924C0119C081E0E6
:100FD00080934C0115C01D821C8212C08981882F0C
:100FE00090E088709927892B29F081E090E09D831B
:100FF0008C8307C01D821C8204C01D821C8201C01C
:10100000000000008C819D810F900F900F900F9039
:101010000F90DF91CF910895CF93DF9300D0CDB79C
:10102000DEB79A83898389819A81892B41F58091E2
:101030005A0190915B01843F914050F480915A0194
:1010400090915B01019690935B0180935A011AC0C5
:1010500080914D01882361F480914C01882321F017
:1010600081E080934D0106C084E080934D0102C071
:1010700010924D0110925B0110925A0103C01A8226
:1010800019820000000089819A810F900F90DF91F2
:10109000CF910895CF93DF93CDB7DEB767970FB6A3
:1010A000F894DEBF0FBECDBF9F8B8E8B8091120157
:1010B0008A83809114018B83809116018C838091A7
:1010C00013018D83809115018E83809117018F8389
:1010D00087E0E1E2F1E0DE01189601900D928A9539
:1010E000E1F787E0E8E2F1E0DE011F9601900D9262
:1010F0008A95E1F780914F01880F880F89838E8947
:101100009F89892B09F050C01F8A1E8A80914B014C
:10111000882339F080915C01833048F010925C01A3
:1011200006C080915C01873010F010925C018091C4
:101130004B018823D1F080915C01882F90E09E01C3
:101140002B5F3F4F820F931FFC01408180915C0118
:10115000882F90E09E012E5F3F4F820F931FFC016E
:101160008081642F0E94BB0119C080915C01882F8F
:1011700090E09E01215F3F4F820F931FFC01408151
:1011800080915C01882F90E09E01285F3F4F820F85
:10119000931FFC018081642F0E94BB0180915C0140
:1011A0008F5F80935C0103C01F8A1E8A00000000CD
:1011B00080914B01882349F085E290E030914E0107
:1011C0002981232BFC01208309C085E290E0309126
:1011D0004D0120915001232BFC0120838E899F8992
:1011E00067960FB6F894DEBF0FBECDBFDF91CF91EB
:1011F00008950F931F93CF93DF93CDB7DEB76B970F
:101200000FB6F894DEBF0FBECDBF81E290E0FC01C7
:10121000108282E290E02FEFFC01208384E290E0D4
:101220002FEFFC01208385E290E0FC01108287E231
:1012300090E02FEFFC01208388E290E0FC01108217
:101240008AE290E02FEFFC0120838BE290E0FC012A
:1012500010820E94440281E00E94550282E1EFE286
:10126000F1E0DE011A9601900D928A95E1F789E08E
:1012700090E098878F838FEF8987898580935D01C0
:1012800081E090E0A0E0B0E080935E0190935F0188
:10129000A0936001B093610180915E0190915F0124
:1012A000A0916001B091610180936201909363010C
:1012B000A0936401B09365018AE792E0909367017F
:1012C0008093660189858093680181E090E0A0E0C9
:1012D000B0E08093690190936A01A0936B01B09391
:1012E0006C018091690190916A01A0916B01B091AC
:1012F0006C0180936D0190936E01A0936F01B09388
:10130000700183EE92E09093720180937101898560
:101310008093730184EF91E0A0E0B0E080937401CA
:1013200090937501A0937601B09377018091740139
:1013300090917501A0917601B09177018093780129
:1013400090937901A0937A01B0937B0182E493E0BA
:1013500090937D0180937C01898580937E0181E05B
:1013600090E0A0E0B0E080937F0190938001A09393
:101370008101B093820180917F0190918001A091C1
:101380008101B09182018093830190938401A093A5
:101390008501B093860184ED93E09093880180935A
:1013A000870189858093890181E090E0A0E0B0E029
:1013B00080938A0190938B01A0938C01B0938D014F
:1013C00080918A0190918B01A0918C01B0918D0147
:1013D00080938E0190938F01A0939001B09391011F
:1013E0008FEE95E09093930180939201898580938D
:1013F000940181E090E0A0E0B0E0809395019093AB
:101400009601A0939701B0939801809195019091D6
:101410009601A0919701B0919801809399019093C2
:101420009A01A0939B01B0939C018FE197E0909368
:101430009E0180939D01898580939F0181E090E0CA
:10144000A0E0B0E08093A0019093A101A093A2013D
:10145000B093A3018091A0019091A101A091A2015C
:10146000B091A3018093A4019093A501A093A6013C
:10147000B093A70180EA97E09093A9018093A80117
:1014800089858093AA0181E090E0A0E0B0E080939C
:10149000AB019093AC01A093AD01B093AE018091EC
:1014A000AB019091AC01A091AD01B091AE018093E0
:1014B000AF019093B001A093B101B093B2018CE061
:1014C00098E09093B4018093B30189858093B5012E
:1014D00081E090E0A0E0B0E08093B6019093B70186
:1014E000A093B801B093B9018091B6019091B70172
:1014F000A091B801B091B9018093BA019093BB015A
:10150000A093BC01B093BD018AE498E09093BF0121
:101510008093BE018A859B85FC0181819281A38194
:10152000B4818B839C83AD83BE8381E090E09A83FA
:10153000898325C089819A81880F991F9E012F5F19
:101540003F4F820F931F0996FC0180819181FC011E
:1015500021813281438154818B819C81AD81BE8107
:10156000BC01CD010E949000DC01CB018B839C83E8
:10157000AD83BE8389819A8101969A83898329816B
:101580003A818F81988528173907A0F28B819C8139
:10159000AD81BE81BC01CD010E94DD000E940B0126
:1015A0001A821982A0C089819A81880F991F9E0191
:1015B0002F5F3F4F820F931F0996FC01808191811D
:1015C000FC01258136814781508589819A81880F68
:1015D000991FBE016F5F7F4F860F971F0996FC0111
:1015E00080819181FC0181819281A381B48128173E
:1015F00039074A075B0709F045C089819A81880F3E
:10160000991F9E012F5F3F4F820F931F0996FC0188
:101610000081118189819A81880F991F9E012F5F16
:101620003F4F820F931F0996FC0180819181FC013D
:101630002185328589819A81880F991FAE014F5F7C
:101640005F4F840F951F0996FC0180819181FC01F9
:101650008081082E000C990BF9010995F80180830F
:1016600089819A81880F991F9E012F5F3F4F820FBA
:10167000931F0996FC0180819181FC0115821682DD
:101680001782108689819A81880F991F9E012F5F8A
:101690003F4F820F931F0996FC0160817181898100
:1016A0009A81880F991F9E012F5F3F4F820F931FD2
:1016B0000996FC0180819181FC0125813681478159
:1016C00050858B819C81AD81BE81820F931FA41FA9
:1016D000B51FFB0185839683A783B08789819A8193
:1016E00001969A83898329813A818F819885281769
:1016F000390708F458CF0000809142018823E1F3B4
:10170000109242014DCF97FB072E16F4009407D09C
:1017100077FD09D00E94B90B07FC05D03EF49095E7
:1017200081959F4F0895709561957F4F0895A1E22F
:101730001A2EAA1BBB1BFD010DC0AA1FBB1FEE1F4B
:10174000FF1FA217B307E407F50720F0A21BB30B96
:10175000E40BF50B661F771F881F991F1A9469F712
:1017600060957095809590959B01AC01BD01CF016E
:101770000895AA1BBB1B51E107C0AA1FBB1FA617D8
:10178000B70710F0A61BB70B881F991F5A95A9F72A
:1017900080959095BC01CD0108958F929F92AF9254
:1017A000BF92CF92DF92EF92FF92CF93DF93EC0143
:1017B000688179818A819B81611571058105910517
:1017C00021F464E279ED8BE597E02DE133EF41E020
:1017D00050E00E94270C49015A019B01AC01A7EA85
:1017E000B1E40E94460C6B017C01ACEEB4EFA501A4
:1017F00094010E94540CDC01CB018C0D9D1DAE1D8B
:10180000BF1DB7FF03C00197A109B0488883998322
:10181000AA83BB839F77DF91CF91FF90EF90DF90FA
:10182000CF90BF90AF909F908F9008950C94CD0B68
:101830008DE191E00C94CD0BA0E0B0E080931D0110
:1018400090931E01A0931F01B09320010895052ECF
:1018500097FB1EF400940E943E0C57FD07D00E9497
:10186000970B07FC03D04EF40C943E0C509540951A
:10187000309521953F4F4F4F5F4F0895909580953C
:10188000709561957F4F8F4F9F4F08950E94590C1F
:10189000A59F900DB49F900DA49F800D911D1124C4
:1018A0000895B7FF0C94460C0E94460C821B930BC4
:1018B0000895A29FB001B39FC001A39F700D811D29
:1018C0001124911DB29F700D811D1124911D089549
:0418D000F894FFCFBA
:1018D400000000020000000067000000000001009A
:1018E400000001F180F108FBFA0001010101000090
:1018F4000046C14244E7E7E7FEFDFBF7EFEFEF5D8B
:1019040001680173017E01890194019F01AA01B557
:021914000100D0
:00000001FF
